:100000000C947D000C9469060C9442060C94A50097
:100010000C94A5000C94A5000C94A5000C94A500CC
:100020000C94A5000C94A5000C94A5000C94A500BC
:100030000C94A5000C94A5000C94A5000C94A500AC
:100040000C94F8050C94A5000C94C6050C94A0051E
:100050000C94A5000C94A5000C94A5000C94A5008C
:100060000C94A5000C94A5000000000800020100FB
:100070000003040700000000000000000000000072
:10008000250028002B0000000000240027002A0083
:10009000040404040404040402020202020203032E
:1000A0000303030301020408102040800102040836
:1000B00010200102040810205E01011F010303014A
:1000C000008A02010A010202010064001E47040BBB
:1000D0000906007C0101060103030100F401060E7C
:1000E0000102020100C20117010102020101960092
:1000F000023E010606010000900611241FBECFEF4C
:10010000D8E0DEBFCDBF12E0A0E0B1E0E8EDFAE15B
:1001100002C005900D92A63BB107D9F724E0A6EBEB
:10012000B2E001C01D92A639B207E1F710E0CDE7B9
:10013000D0E004C02197FE010E94660ACC37D107A7
:10014000C9F70E94E7060C946A0D0C94000090E039
:10015000FC01EC55FF4F249180579F4FFC01849187
:10016000882399F090E0880F991FFC01EA57FF4F10
:10017000A591B491FC01E458FF4F859194918FB7FC
:10018000F894EC91E22BEC938FBF0895E0918704F3
:10019000F0918804EF3FFE0739F11092830410922A
:1001A000840410928504109286041092E503109244
:1001B000E4032E2FE230C0F4FF27EE0FFF1FE050C4
:1001C000FF4F84EF93E09183808380916900213019
:1001D00031F08C7F816080936900E89A0895837F75
:1001E000846080936900E99A0895AF92BF92CF929C
:1001F000DF92EF92FF920F931F93CF93DF936C01E7
:100200007B018B01040F151FEB015E01AE18BF08C7
:10021000C017D10759F06991D601ED91FC91019079
:10022000F081E02DC6010995892B79F7C501DF9191
:10023000CF911F910F91FF90EF90DF90CF90BF90E3
:10024000AF900895FC01538D448D252F30E0842F0D
:1002500090E0821B930B541710F0CF9608950197EE
:100260000895FC01918D828D981761F0A28DAE0FDB
:10027000BF2FB11D5D968C91928D9F5F9F73928F62
:1002800090E008958FEF9FEF0895FC01918D828D8E
:10029000981731F0828DE80FF11D858D90E008955B
:1002A0008FEF9FEF0895FC01918D228D892F90E0B3
:1002B000805C9F4F821B91098F739927089586EE6A
:1002C00093E00E94530121E0892B09F420E0822F62
:1002D000089580E090E0892B29F00E945F01811150
:1002E0000C9400000895FC01A48DA80FB92FB11D36
:1002F000A35ABF4F2C91848D90E001968F7399275C
:10030000848FA689B7892C93A089B1898C91837039
:1003100080648C93938D848D981306C00288F38932
:10032000E02D80818F7D80830895EF92FF920F935F
:100330001F93CF93DF93EC0181E0888F9B8D8C8D91
:1003400098131AC0E889F989808185FF15C09FB785
:10035000F894EE89FF896083E889F9898081837048
:10036000806480839FBF81E090E0DF91CF911F91F7
:100370000F91FF90EF900895F62E0B8D10E00F5F18
:100380001F4F0F731127E02E8C8D8E110CC00FB6EE
:1003900007FCFACFE889F989808185FFF5CFCE0186
:1003A0000E947301F1CFEB8DEC0FFD2FF11DE35A8D
:1003B000FF4FF0829FB7F8940B8FEA89FB89808109
:1003C0008062CFCFCF93DF93EC01888D8823B9F083
:1003D000AA89BB89E889F9898C9185FD03C0808150
:1003E00086FD0DC00FB607FCF7CF8C9185FFF2CFCD
:1003F000808185FFEDCFCE010E947301E9CFDF91AF
:10040000CF91089590E0FC01E859FF4F2491FC0141
:10041000EC55FF4F3491FC01E057FF4FE491EE2380
:10042000C9F0222339F0233001F1A8F4213019F169
:10043000223029F1F0E0EE0FFF1FE458FF4FA591A5
:10044000B4918FB7F894EC91611126C030953E239A
:100450003C938FBF08952730A9F02830C9F024308D
:1004600049F7809180008F7D03C0809180008F7755
:1004700080938000DFCF84B58F7784BDDBCF84B5D8
:100480008F7DFBCF8091B0008F778093B000D2CF6B
:100490008091B0008F7DF9CF3E2BDACF1F93CF93A1
:1004A000DF93182FD92F8091950460E0C1E081116E
:1004B00002C061E0C0E0809189040E9402022091A4
:1004C0008D0430918E04129FC001139F900D112452
:1004D0008230910538F0880F991F880F991F059772
:1004E0000197F1F76C2F809189040E9402022091FC
:1004F0008D0430918E04D29FC001D39F900D1124A2
:100500008230910538F0880F991F880F991F059741
:100510000197F1F7DF91CF911F910895E82FF0E057
:10052000882359F0813059F0EE0FFF1FE050FF4F44
:100530008FE293E0918380830895E898F5CFE9985E
:10054000F3CF4F925F926F927F928F929F92AF9272
:10055000BF92CF92DF92EF92FF920F931F93CF93B0
:10056000DF932B013C016A01C0918704D09188047C
:10057000CF3FDC0759F08C2FC23010F40E948E025E
:100580008FEF9FEF9093880480938704F12CE12CE8
:10059000812C912C5401839480918B0490918C0434
:1005A000E816F9066CF586010150110917FD1EC009
:1005B000D501C401002E04C0880F991FAA1FBB1FBC
:1005C0000A94D2F784219521A621B721892B8A2B61
:1005D0008B2B39F080919304909194040E944E02E9
:1005E000E3CF8091910490919204F8CF80918F0491
:1005F000909190040E944E028FEFE81AF80ACCCF37
:1006000060E0809189040E940202CF3FDC07B1F0D4
:10061000D0938804C0938704DF91CF911F910F91ED
:10062000FF90EF90DF90CF90BF90AF909F908F9012
:100630007F906F905F904F900C94C600DF91CF91A8
:100640001F910F91FF90EF90DF90CF90BF90AF90F0
:100650009F908F907F906F905F904F900895089536
:1006600061E085E00E94020286E090E090938A04B7
:10067000809389040C94A700CF92DF92EF92FF92AF
:100680000F931F93CF93DF93EB01188219821A8285
:100690001B828C01F80191918F01992309F1E92FB7
:1006A000092E000CFF0BF097EA30F105B8F4288111
:1006B00039814A815B81AAE0B0E00E945B0A6F0148
:1006C000FF0FEE08FF08DC01CB018C0D9D1DAE1D58
:1006D000BF1D88839983AA83BB83DCCF9D35D1F668
:1006E000DF91CF911F910F91FF90EF90DF90CF900E
:1006F0000895EF92FF920F931F93CF93DF93F82EFD
:10070000E62EC0E0D0E00BE113E086EE93E00E941D
:100710005301892B09F186EE93E00E943101F80123
:100720003197F1F7D11102C08F111DC0E1E0EC0F3C
:10073000AC2FB0E0A757BC4F8C938F1102C0E130B3
:10074000A9F0EA3511F08E110FC0F0E0E757FC4F29
:10075000108281E08093E303DF91CF911F910F918D
:10076000FF90EF900895EC2FCE2FCFCFD1E0FCCFAC
:1007700084E00E94A70060E084E00E94020285E01D
:100780000E94A7008091590390915A03A0915B03A6
:10079000B0915C039C01215031092730310520F0D4
:1007A00081E090E0A0E0B0E0019729E0289FB0014F
:1007B000299F700D112468547F4F49E050E08DE867
:1007C00094E00E94280A80915D0390915E039093CB
:1007D0008E0480938D0480916103909162039093C5
:1007E0008C0480938B0408952F923F924F925F92D6
:1007F0006F927F928F929F92AF92BF92CF92DF9231
:10080000EF92FF920F931F93CF93DF93CDB7DEB795
:1008100065970FB6F894DEBF0FBECDBF9FB7F894B3
:100820008090440390904503A0904603B090470306
:1008300086B5A89B07C08F3F29F02FEF821A920A36
:10084000A20AB20A9FBFBA2CA92C982C8824880E21
:10085000911CA11CB11C82E0880C991CAA1CBB1C19
:100860008A95D1F780914003909141032401481A61
:10087000590A3DEC431630E1530608F4DDC080917F
:10088000BA029091BB02D201A81BB90BCD01B7FFF0
:1008900003C0919581959109883C91050CF0C8C0E1
:1008A0008091B8029091B90201969093B902809319
:1008B000B802029709F0BCC018EB612E10E0712E4F
:1008C00001E010E02090B6023090B7023B862A8605
:1008D00049E050E0B301CE0101960E94280A8B81C5
:1008E0006C81681708F4682F70E08091BA029091CB
:1008F000BB020E94470A9B014091040150910501EF
:10090000649FC001659F900D749F900D112464E653
:1009100070E00E94470A898541E050E0882311F089
:1009200042E050E08D81829FD001839FB00D112461
:10093000BD87AC878E81829FF001839FF00D1124CB
:10094000FF87EE878F81829F1001839F300C1124D7
:10095000398A288A8885829FD001839FB00D11240F
:10096000BB8BAA8BFA01EE0FFF1FE654FD4FC12C83
:10097000D12C76018A859B8501979D8B8C8BAC89C8
:10098000BD894A175B0708F041C0CC0CDD1CEE1C8A
:10099000FF1C80819181DC012C843D84A219B30964
:1009A000B7FF03C0B195A195B109A617B70770F4B9
:1009B000A281B3812E843F84A219B309B7FF03C07B
:1009C000B195A195B109A617B707E0F0A889B98933
:1009D0008A1B9B0B97FF03C0919581959109861700
:1009E0009707C8F4828193812A883B8882199309EA
:1009F00097FF03C09195819591098617970758F441
:100A00006894C0F84E5F5F4F3496B9CF8A859B8556
:100A1000089708F053C00F5F1F4F99E0690E711CD3
:100A20000830110509F04ECF1092B9021092B802A9
:100A30001092B7021092B6028091B6029091B7025E
:100A40008334910540F01092B7021092B6021092D2
:100A5000B9021092B8028091B6029091B7029C013F
:100A60002F5F3F4F3093B7022093B602880F991F34
:100A7000FC01E654FD4F51824082809240039092E7
:100A80004103A0924203B092430365960FB6F894D7
:100A9000DEBF0FBECDBFDF91CF911F910F91FF90B1
:100AA000EF90DF90CF90BF90AF909F908F907F900E
:100AB0006F905F904F903F902F900895C092830465
:100AC000D0928404E0928504F09286042C883D88BC
:100AD000369427943092E5032092E40330934A033E
:100AE0002093490310934C0300934B039DCFEF9247
:100AF000FF920F931F93CF93DF937C018C01D0E083
:100B0000C0E0CE010E94310AF80181938F01219645
:100B1000CC31D105B1F7C701DF91CF911F910F9172
:100B2000FF90EF900895FC0101900020E9F73197C4
:100B3000AF01481B590BBC0186EE93E00C94F50005
:100B40001F920F920FB60F9211242F933F934F9342
:100B50005F936F937F938F939F93AF93BF93EF9325
:100B6000FF9386EE93E00E947301FF91EF91BF9196
:100B7000AF919F918F917F916F915F914F913F9135
:100B80002F910F900FBE0F901F9018951F920F92EC
:100B90000FB60F9211242F938F939F93EF93FF9390
:100BA000E091F603F091F7038081E091FC03F0916E
:100BB000FD0382FD1BC090818091FF038F5F8F73C7
:100BC00020910004821741F0E091FF03F0E0EA5128
:100BD000FC4F958F8093FF03FF91EF919F918F9131
:100BE0002F910F900FBE0F901F9018958081F4CF1A
:100BF0001F920F920FB60F9211242F933F938F9352
:100C00009F93AF93BF9380914D0390914E03A0911A
:100C10004F03B09150033091480323E0230F2D3749
:100C200058F50196A11DB11D2093480380934D03F3
:100C300090934E03A0934F03B093500380914403CD
:100C400090914503A0914603B09147030196A11DE1
:100C5000B11D8093440390934503A0934603B09342
:100C60004703BF91AF919F918F913F912F910F902B
:100C70000FBE0F901F90189526E8230F0296A11D16
:100C8000B11DD2CF1F920F920FB60F9211242F9346
:100C90003F934F935F936F937F938F939F93AF9304
:100CA000BF93EF93FF93E0910201F0910301099547
:100CB000FF91EF91BF91AF919F918F917F916F9134
:100CC0005F914F913F912F910F900FBE0F901F900A
:100CD00018951F920F920FB60F9211242F933F93E6
:100CE0004F935F936F937F938F939F93AF93BF9334
:100CF000EF93FF93E0910001F09101010995FF91BD
:100D0000EF91BF91AF919F918F917F916F915F9183
:100D10004F913F912F910F900FBE0F901F901895FC
:100D20000F931F93CF93DF93E6EEF3E013821282CB
:100D300088EE93E0A0E0B0E084839583A683B78338
:100D40008BEE91E09183808385EC90E0958784879A
:100D500084EC90E09787868780EC90E0918B808B85
:100D600081EC90E0938B828B82EC90E0958B848B6E
:100D700086EC90E0978B868B118E128E138E148EDC
:100D8000C7E8D4E00FEF1FEF1B830A838AE090E0EF
:100D90009D838C8349E050E068EB70E08DE894E03F
:100DA0000E94280A198308838CE390E09093050140
:100DB000809304011092830410928404109285049D
:100DC00010928604DF91CF911F910F910895CF93D8
:100DD000DF93CDB7DEB7CB54D1090FB6F894DEBFA1
:100DE0000FBECDBF789484B5826084BD84B5816028
:100DF00084BD85B5826085BD85B5816085BD8091E6
:100E00006E00816080936E0010928100809181005D
:100E10008260809381008091810081608093810055
:100E2000809180008160809380008091B100846017
:100E30008093B1008091B00081608093B000809178
:100E40007A00846080937A0080917A008260809337
:100E50007A0080917A00816080937A0080917A0094
:100E6000806880937A001092C100E091F603F091BF
:100E7000F70382E08083E091F203F091F3031082A4
:100E8000E091F403F091F50380E180831092FE037A
:100E9000E091FA03F091FB0386E08083E091F80390
:100EA000F091F903808180618083E091F803F091F3
:100EB000F903808188608083E091F803F091F90361
:100EC000808180688083E091F803F091F90380814C
:100ED0008F7D808381E593E00E9477050E94B803AF
:100EE00082E00E94A7008E010F5F1F4FAA24AA94E0
:100EF000BA2C2EE3C22E21E0D22E37E2632E32E04E
:100F0000732E6EE38CE30E947903F090E303FF20DD
:100F1000D9F16DED71E089E893E00E947B0A892B9D
:100F200029F480ED91E00E9493052AC068EC71E0FD
:100F300089E893E00E947B0A892B99F58DEB91E07B
:100F40000E9493050E9430038091890490918A0445
:100F5000019671F04091690350916A0360915103C9
:100F60007091520380915303909154030E94A10207
:100F7000B0928A04A092890460E085E00E94020297
:100F8000109289031092E303E0E0F0E0EF2B09F404
:100F9000B8CF0E945F01882309F4A8CF0E94000007
:100FA000A5CF64EB71E089E893E00E947B0A892B6E
:100FB000C9F488EA91E00E9493050E943003809171
:100FC000890490918A04019699F2409169035091A5
:100FD0006A03609155037091560380915703909175
:100FE0005803C4CF6EE971E089E893E00E947B0A60
:100FF000892B19F481E991E096CF63E871E089E8E3
:1010000093E00E947B0A892B09F098C01092E303B9
:101010006DE58BE50E9479038091E3038823E1F07D
:1010200044E050E069EF71E089E893E00E94840AAF
:10103000892B91F561E573E08DE893E00E943C0314
:101040001092890342E050E063EB72E089E893E09C
:101050000E94840A892BD1F681E5882E83E0982EA0
:10106000F12CE12CF40151904F01C7010E94310A8B
:10107000581621F0652DC7010E94390AFFEFEF1ABB
:10108000FF0A2CE1E216F10469F782E791E00E9481
:1010900093050E94B80374CF45E050E06EEF71E015
:1010A00089E893E00E94840A65E573E0892B61F08A
:1010B00045E050E064E072E089E893E00E94840A31
:1010C000892B29F469E573E08EE893E0B7CF46E019
:1010D00050E06AE072E089E893E00E94840A6DE5DE
:1010E00073E0892B41F147E050E061E172E089E86B
:1010F00093E00E94840A892B29F461E673E080E979
:1011000093E09CCF46E050E069E172E089E893E02B
:101110000E94840A65E673E0892B69F046E050E09E
:1011200060E272E089E893E00E94840A892B09F06A
:1011300087CF69E673E08FE893E080CF66E671E0E1
:1011400089E893E00E947B0A892B19F487E591E0F6
:10115000EACE6CE471E089E893E00E947B0A892B77
:1011600009F0E7C08FB7F89420904D0330904E03FC
:1011700040904F03509050038FBF61E082E00E9487
:10118000020281E090E090938804809387040E949B
:10119000C60098EB290E9BE0391E411C511C2FB74D
:1011A000F89480914D0390914E03A0914F03B0911C
:1011B00050032FBF82159305A405B50508F0A5C0FF
:1011C0008091830490918404A0918504B091860459
:1011D000892B8A2B8B2B19F38091830490918404A3
:1011E000A0918504B091860480936D0390936E0363
:1011F000A0936F03B0937003809371039093720375
:10120000A0937303B093740380914B0390914C03AC
:10121000B0E0A0E08093750390937603A0937703EA
:10122000B09378038091490390914A03B0E0A0E025
:101230008093790390937A03A0937B03B0937C030C
:101240008091E4039091E503B0E0A0E080938503F2
:1012500090938603A0938703B0938803109283042E
:101260001092840410928504109286048091870461
:10127000823010F40E948E02B0928804A0928704FB
:1012800060E082E00E940202FF2009F440C08091E9
:1012900088038F93809187038F93809186038F9328
:1012A000809185038F9380917C038F9380917B0342
:1012B0008F9380917A038F93809179038F9380919C
:1012C00078038F93809177038F93809176038F9328
:1012D000809175038F93809170038F9380916F033A
:1012E0008F9380916E038F9380916D038F93DF9224
:1012F000CF927F926F921F930F930E94920A0FB624
:10130000F894DEBF0FBECDBF12C0F12CAFCFDF927D
:10131000CF9283E592E09F938F931F930F930E9448
:10132000920A0F900F900F900F900F900F90C8019E
:10133000FACD61E371E089E893E00E947B0A892B92
:10134000C9F488E592E09F938F9381E291E09F93A7
:101350008F938FE592E09F938F931F930F930E943B
:10136000920AC8010E9493050FB6F894DEBF0FBE23
:10137000CDBF06CE65E171E089E893E00E947B0A6B
:10138000892B09F0FDCD8DE693E00E9477058091D1
:1013900088038F93809187038F93809186038F9327
:1013A000809185038F93809184038F938091830331
:1013B0008F93809182038F93809181038F9380918B
:1013C00080038F9380917F038F9380917E038F930F
:1013D00080917D038F9380917C038F9380917B0319
:1013E0008F9380917A038F93809179038F9380916B
:1013F00078038F93809177038F93809176038F93F7
:10140000809175038F93809174038F938091730300
:101410008F93809172038F93809171038F9380914A
:1014200070038F9380916F038F9380916E038F93DE
:1014300080916D038F93E6E0F1E0FF93EF938EE6EA
:1014400092E09F938F931F930F930E94920A57CF1E
:10145000FB01DC0102C005900D9241505040D8F7CD
:101460000895F999FECF92BD81BDF89A992780B56C
:101470000895262FF999FECF1FBA92BD81BD20BDD8
:101480000FB6F894FA9AF99A0FBE01960895AA1B1E
:10149000BB1B51E107C0AA1FBB1FA617B70710F05F
:1014A000A61BB70B881F991F5A95A9F78095909591
:1014B000BC01CD0108950E946C0AA59F900DB49FB8
:1014C000900DA49F800D911D11240895EE0FFF1F14
:1014D0000590F491E02D0994A29FB001B39FC00143
:1014E000A39F700D811D1124911DB29F700D811D50
:1014F0001124911D0895FB01DC018D91019080194B
:101500000110D9F3990B0895FB01DC0141505040C3
:1015100030F08D910190801919F40020B9F7881BE3
:10152000990B0895AEE0B0E0E8E9FAE00C94410DC3
:101530000D891E8986E08C831A8309838FEF9FE7CC
:101540009E838D83AE01475E5F4F6F89788DCE019C
:1015500001960E94B50A2F813885020F131FF801EA
:1015600010822E96E4E00C945D0DABE0B0E0EBEB66
:10157000FAE00C94330D7C013B018A01FC011782D7
:101580001682838181FFC8C1CE0101965C01F701FB
:101590009381F30193FD859193FF81913F0188230E
:1015A00009F453C1853239F493FD859193FF8191FC
:1015B0003F01853229F4B70190E00E94A50CE7CFE6
:1015C000912C212C312CFFE1F31538F08B3211F1E5
:1015D00090F4803209F1833229F137FC3CC020EDD0
:1015E000280F2A3050F536FE20C08AE0989E200D44
:1015F0001124922E06C08D3291F0803371F76894D9
:1016000030F8F30193FD859193FF81913F018111A2
:10161000DACF21C0689431F8689432F8F2CF689438
:1016200033F8EFCF689434F8ECCFEAE02E9E200D2B
:101630001124222E689435F8E4CF8E3229F436FC3A
:1016400004C1689436F8DDCF8C3619F4689437F805
:10165000D8CF8836B1F2982F9F7D95549330E0F023
:101660008336A1F18337C1F1833509F063C02801C6
:10167000F2E04F0E511CF801C080D180692D70E05E
:1016800036FC02C06FEF7FEFC6010E948F0C4C0149
:10169000689437F882010AC00C5F1F4FFFE3F9839B
:1016A00088248394912C6501E89437F833FE2DC08B
:1016B000522C8114910471F5552009F468CFB701BB
:1016C00080E290E00E94A50C5A94F6CFF801808148
:1016D00089830E5F1F4FE4CF2801F2E04F0E511CAB
:1016E000F801C080D180692D70E036FC02C06FEF38
:1016F0007FEFC6010E949A0C4C018201D5CFB70141
:1017000080E290E00E94A50C2A942814190409F0A4
:10171000B0F7CECFF60137FC859137FE81916F018E
:10172000B70190E00E94A50C51105A94F1E08F1A75
:101730009108BFCF843619F0893609F077C0F801D7
:1017400037FE6BC060817181828193810C5F1F4F76
:10175000F32DFF763F2E97FF09C0909580957095E9
:1017600061957F4F8F4F9F4F689437F82AE030E0A4
:10177000A5010E94D50CC82ECA188C2C432C36FE0D
:101780000CC0E89440F8C91440F434FE05C032FCA3
:1017900003C0F32DFE7E4F2E892C44FE95C0FE0122
:1017A000EC0DF11D8081803309F087C0242D297E46
:1017B000422E842D8870582E43FC95C040FE8FC069
:1017C0009C2C821418F42C0C922C981844FE91C076
:1017D000B70180E390E00E94A50C42FE09C088E7B3
:1017E00090E041FE02C088E590E0B7010E94A50CA0
:1017F000C91408F48AC0CA94D12C9FEFC91AD90A17
:10180000CA0CDB1CF60182916F01B70190E00E94C7
:10181000A50CAC14BD04B1F74FCF60817181072EC8
:10182000000C880B990B0E5F1F4F92CFD32CE894BE
:10183000D4F82AE030E0853739F1232D297FD22EE4
:101840008F3601F148F48835A9F0F7018681978138
:101850002B96E2E10C944F0D803749F08837A9F7B9
:10186000D4FE02C06894D2F820E130E00DC0689444
:10187000D4F8F6CF34FE03C0822F8660D82E20E144
:1018800032E002C028E030E0F801D7FE0FC06081EE
:101890007181828193810C5F1F4FA5010E94D50C3D
:1018A000C82ECA183D2CE89437F867CF6081718143
:1018B00090E080E00E5F1F4FF0CF42FC02C08394A7
:1018C00078CF8394839475CF842D867809F471CF73
:1018D000F6CFB70180E290E00E94A50C83948214B9
:1018E000C0F3512C73CF522C5818821408F46ECFC9
:1018F000F8CF842D867809F47BCF8BE241FE80E21D
:1019000047FC8DE2B70190E071CFB70180E390E032
:101910000E94A50C9A946CCF8FEF9FEF99CFFC019A
:101920000590615070400110D8F7809590958E0F0A
:101930009F1F0895FC016150704001900110D8F77D
:10194000809590958E0F9F1F08950F931F93CF93AF
:10195000DF93182F092FEB018B8181FD09C01FEF49
:101960000FEF812F902FDF91CF911F910F9108954D
:1019700082FF14C02E813F818C819D8128173907F9
:101980003CF4E881F981CF01019699838883108323
:101990008E819F8101969F838E83E3CFE885F985B1
:1019A000812F0995892BA1F3DACFFA01AA272830D4
:1019B00051F1203181F1E8946F936E7F6E5F7F4F1C
:1019C0008F4F9F4FAF4FB1E03ED0B4E03CD0670F98
:1019D000781F891F9A1FA11D680F791F8A1F911DEB
:1019E000A11D6A0F711D811D911DA11D20D009F43B
:1019F00068943F912AE0269F11243019305D31937D
:101A0000DEF6CF010895462F4770405D4193B3E065
:101A10000FD0C9F7F6CF462F4F70405D4A3318F00C
:101A2000495D31FD4052419302D0A9F7EACFB4E0BD
:101A3000A6959795879577956795BA95C9F7009775
:101A40006105710508959B01AC010A2E0694579516
:101A5000479537952795BA95C9F7620F731F841F6D
:101A6000951FA01D08952F923F924F925F926F9203
:101A70007F928F929F92AF92BF92CF92DF92EF921E
:101A8000FF920F931F93CF93DF93CDB7DEB7CA1B9F
:101A9000DB0B0FB6F894DEBF0FBECDBF09942A88CA
:101AA000398848885F846E847D848C849B84AA8472
:101AB000B984C884DF80EE80FD800C811B81AA81FF
:101AC000B981CE0FD11D0FB6F894DEBF0FBECDBFCA
:081AD000ED010895F894FFCF29
:101AD8002F032F033C003C434F5F454550524F4D69
:101AE8005F4F4B3E003C434F5F454550524F4D3E84
:101AF800003C434F5F56455253494F4E5F4F4B3E54
:101B0800003C434F5F56455253494F4E3E003C43BD
:101B18004F5F4C4541524E5F4F4B3E003C434F5F39
:101B28004C4541524E3E003C434F5F4F55544C4547
:101B3800545F4F4B3E003C434F5F4F55544C455408
:101B48003E003C434F5F53455454494E47535F4F03
:101B58004B3E003C434F5F53455454494E47533E18
:101B6800003C434F5F424541545F4F4B3E003C436E
:101B78004F5F424541543E003C434F5F4F46465FEE
:101B88004F4B3E003C434F5F4F46463E003C434F61
:101B98005F4F4E5F4F4B3E003C434F5F4F4E3E0002
:101BA8003C434F5F57414B455F4F4B3E003C434FD3
:101BB8005F57414B453E00000000009501F50022AB
:101BC80001E2015301310145015B4F6E3A005B4F61
:101BD80066663A005B50726F3A005B504C656E3A2D
:101BE800005B50526570733A005B544F42513A00A3
:101BF8005B564C656E3A0025735B436F64653A2506
:101C08006C645D5B50726F3A256C645D5B504C652B
:101C18006E3A256C645D5B564C656E3A256C645D66
:101C28005B5D0025735B5D00302E382E3037002554
:101C3800735B4275696C643A25735D5B5D0025735F
:101C48005B4F6E3A256C645D5B4F66663A256C6443
:101C58005D5B50726F3A256C645D5B504C656E3A03
:101C6800256C645D5B50526570733A256C645D5BEE
:101C7800544F42513A256C645D5B564C656E3A256B
:061C88006C645D5B5D0071
:00000001FF
