:100000000C947D000C94E2070C94BB070C94A500A3
:100010000C94A5000C94A5000C94A5000C94A500CC
:100020000C94A5000C94A5000C94A5000C94A500BC
:100030000C94A5000C94A5000C94A5000C94A500AC
:100040000C9471070C94A5000C943F070C941907AD
:100050000C94A5000C94A5000C94A5000C94A5008C
:100060000C94A5000C94A5000000000800020100FB
:100070000003040700000000000000000000000072
:10008000240027002A005E01011F01030301008AEA
:1000900002010A010202010064001E47040B090666
:1000A000007C0101060103030100F401060E0102B8
:1000B000020100C201170101020201019600023E85
:1000C000010606010000000000250028002B0004A6
:1000D00004040404040404020202020202030303EF
:1000E00003030301020408102040800102040810E9
:1000F0002001020408102000090811241FBECFEFC0
:10010000D8E0DEBFCDBF14E0A0E0B1E0EEE0F0E269
:1001100002C005900D92A23EB107D9F726E0A2EEEB
:10012000B4E001C01D92A73DB207E1F710E0CDE7B2
:10013000D0E004C02197FE010E94010DCC37D10709
:10014000C9F70E9497080C9405100C94000090E0E9
:10015000FC01ED51FF4F249181539F4FFC0184918D
:10016000882399F090E0880F991FFC01E458FF4F15
:10017000A591B491FC01EB53FF4F859194918FB7FA
:10018000F894EC91E22BEC938FBF0895E091B306C5
:10019000F091B406EF3FFE0739F11092AF061092CE
:1001A000B0061092B1061092B2061092110610928B
:1001B00010062E2FE230C0F4FF27EE0FFF1FE05095
:1001C000FF4F8AE594E0918380838091690021301C
:1001D00031F08C7F816080936900E89A0895837F75
:1001E000846080936900E99A0895AF92BF92CF929C
:1001F000DF92EF92FF920F931F93CF93DF936C01E7
:100200007B018B01040F151FEB015E01AE18BF08C7
:10021000C017D10759F06991D601ED91FC91019079
:10022000F081E02DC6010995892B79F7C501DF9191
:10023000CF911F910F91FF90EF90DF90CF90BF90E3
:10024000AF900895FC01538D448D252F30E0842F0D
:1002500090E0821B930B541710F0CF9608950197EE
:100260000895FC01918D828D981761F0A28DAE0FDB
:10027000BF2FB11D5D968C91928D9F5F9F73928F62
:1002800090E008958FEF9FEF0895FC01918D828D8E
:10029000981731F0828DE80FF11D858D90E008955B
:1002A0008FEF9FEF0895FC01918D228D892F90E0B3
:1002B000805C9F4F821B91098F739927089582E17B
:1002C00096E00E94530121E0892B09F420E0822F5F
:1002D000089580E090E0892B29F00E945F01811150
:1002E0000C9400000895FC01A48DA80FB92FB11D36
:1002F000A35ABF4F2C91848D90E001968F7399275C
:10030000848FA689B7892C93A089B1898C91837039
:1003100080648C93938D848D981306C00288F38932
:10032000E02D80818F7D80830895EF92FF920F935F
:100330001F93CF93DF93EC0181E0888F9B8D8C8D91
:1003400098131AC0E889F989808185FF15C09FB785
:10035000F894EE89FF896083E889F9898081837048
:10036000806480839FBF81E090E0DF91CF911F91F7
:100370000F91FF90EF900895F62E0B8D10E00F5F18
:100380001F4F0F731127E02E8C8D8E110CC00FB6EE
:1003900007FCFACFE889F989808185FFF5CFCE0186
:1003A0000E947301F1CFEB8DEC0FFD2FF11DE35A8D
:1003B000FF4FF0829FB7F8940B8FEA89FB89808109
:1003C0008062CFCFCF93DF93EC01888D8823B9F083
:1003D000AA89BB89E889F9898C9185FD03C0808150
:1003E00086FD0DC00FB607FCF7CF8C9185FFF2CFCD
:1003F000808185FFEDCFCE010E947301E9CFDF91AF
:10040000CF91089590E0FC01E859FF4F2491FC0141
:10041000ED51FF4F3491FC01E153FF4FE491EE2386
:10042000C9F0222339F0233001F1A8F4213019F169
:10043000223029F1F0E0EE0FFF1FEB53FF4FA591A3
:10044000B4918FB7F894EC91611126C030953E239A
:100450003C938FBF08952730A9F02830C9F024308D
:1004600049F7809180008F7D03C0809180008F7755
:1004700080938000DFCF84B58F7784BDDBCF84B5D8
:100480008F7DFBCF8091B0008F778093B000D2CF6B
:100490008091B0008F7DF9CF3E2BDACF1F93CF93A1
:1004A000DF93182FD92F8091C10660E0C1E0811140
:1004B00002C061E0C0E08091B5060E940202209176
:1004C000B9063091BA06129FC001139F900D1124F6
:1004D0008230910538F0880F991F880F991F059772
:1004E0000197F1F76C2F8091B5060E9402022091CE
:1004F000B9063091BA06D29FC001D39F900D112446
:100500008230910538F0880F991F880F991F059741
:100510000197F1F7DF91CF911F910895E82FF0E057
:10052000882359F0813059F0EE0FFF1FE050FF4F44
:100530008FE293E0918380830895E898F5CFE9985E
:10054000F3CF4F925F926F927F928F929F92AF9272
:10055000BF92CF92DF92EF92FF920F931F93CF93B0
:10056000DF932B013C016A01C091B306D091B40620
:10057000CF3FDC0759F08C2FC23010F40E948E025E
:100580008FEF9FEF9093B4068093B306F12CE12C8C
:10059000812C912C540183948091B7069091B806D8
:1005A000E816F9066CF586010150110917FD1EC009
:1005B000D501C401002E04C0880F991FAA1FBB1FBC
:1005C0000A94D2F784219521A621B721892B8A2B61
:1005D0008B2B39F08091BF069091C0060E944E028D
:1005E000E3CF8091BD069091BE06F8CF8091BB0607
:1005F0009091BC060E944E028FEFE81AF80ACCCF09
:1006000060E08091B5060E940202CF3FDC07B1F0A6
:10061000D093B406C093B306DF91CF911F910F9191
:10062000FF90EF90DF90CF90BF90AF909F908F9012
:100630007F906F905F904F900C94C600DF91CF91A8
:100640001F910F91FF90EF90DF90CF90BF90AF90F0
:100650009F908F907F906F905F904F900895089536
:100660008FEF9FEF089590E080E008950895EF9256
:10067000FF920F931F93CF93DF93DC015296ED907F
:10068000FC905397E114F10479F481E090E0139623
:100690009C938E93129790E080E0DF91CF911F9111
:1006A0000F91FF90EF9008951D96ED91FC911E978C
:1006B0001C968C911C97982F90950FB754962C915F
:1006C0005497122F127021FD6095F8942081112308
:1006D00019F1282B2083E7012197F1F728E0462F15
:1006E00050E0308160FF1AC0382B3083E70121973A
:1006F000F1F7BA0175956795215089F7112381F0BB
:100700008081892380830FBF52968D919C910197A0
:10071000F1F781E090E0C1CF2923DCCF3923E5CF89
:100720009081892BEFCF90E080E0089561E085E033
:100730000E94020286E090E09093B6068093B50690
:100740000C94A700CF92DF92EF92FF920F931F932A
:10075000CF93DF93EB01188219821A821B828C01DE
:10076000F80191918F01992309F1E92F092E000CCD
:10077000FF0BF097EA30F105B8F4288139814A81FE
:100780005B81AAE0B0E00E94F60C6F01FF0FEE085B
:10079000FF08DC01CB018C0D9D1DAE1DBF1D8883A4
:1007A0009983AA83BB83DCCF9D35D1F6DF91CF91AE
:1007B0001F910F91FF90EF90DF90CF900895EF92EF
:1007C000FF920F931F93CF93DF93F82EE62EC0E096
:1007D000D0E00BE113E082E196E00E945301892B07
:1007E00009F182E196E00E943101F8013197F1F7B9
:1007F000D11102C08F111DC0E1E0EC0FAC2FB0E0B1
:10080000AB54BA4F8C938F1102C0E130A9F0EA3596
:1008100011F08E110FC0F0E0EB54FA4F108281E01E
:1008200080930F06DF91CF911F910F91FF90EF9072
:100830000895EC2FCE2FCFCFD1E0FCCF84E00E94E3
:10084000A70060E084E00E94020285E00E94A70009
:100850008091A1059091A205A091A305B091A40556
:100860009C01215031092730310520F081E090E0D2
:10087000A0E0B0E0019729E0289FB001299F700D0A
:1008800011246A577F4F49E050E089EB96E00E94BF
:10089000A10C8091A5059091A6059093BA0680932E
:1008A000B9068091A9059091AA059093B806809306
:1008B000B70608952F923F924F925F926F927F9268
:1008C0008F929F92AF92BF92CF92DF92EF92FF9260
:1008D0000F931F93CF93DF93CDB7DEB765970FB616
:1008E000F894DEBF0FBECDBF9FB7F894809070051F
:1008F00090907105A0907205B090730586B5A89B85
:1009000007C08F3F29F02FEF821A920AA20AB20A7B
:100910009FBFBA2CA92C982C8824880E911CA11C4E
:10092000B11C82E0880C991CAA1CBB1C8A95D1F7CB
:1009300080916C0590916D052401481A590A3DEC8F
:10094000431630E1530608F4DDC08091E60490912F
:10095000E704D201A81BB90BCD01B7FF03C09195E5
:1009600081959109883C91050CF0C8C08091E40400
:100970009091E50401969093E5048093E404029736
:1009800009F0BCC016E8612E10E0712E01E010E005
:100990002090E2043090E3043B862A8649E050E050
:1009A000B301CE0101960E94A10C8B816C81681766
:1009B00008F4682F70E08091E6049091E7040E94AB
:1009C000C00C9B014091040150910501649FC0013E
:1009D000659F900D749F900D112464E670E00E9455
:1009E000C00C898541E050E0882311F042E050E0DE
:1009F0008D81829FD001839FB00D1124BD87AC876C
:100A00008E81829FF001839FF00D1124FF87EE8776
:100A10008F81829F1001839F300C1124398A288A8C
:100A20008885829FD001839FB00D1124BB8BAA8B38
:100A3000FA01EE0FFF1FEA51FB4FC12CD12C7601BA
:100A40008A859B8501979D8B8C8BAC89BD894A17C4
:100A50005B0708F041C0CC0CDD1CEE1CFF1C808144
:100A60009181DC012C843D84A219B309B7FF03C036
:100A7000B195A195B109A617B70770F4A281B3810A
:100A80002E843F84A219B309B7FF03C0B195A19585
:100A9000B109A617B707E0F0A889B9898A1B9B0B93
:100AA00097FF03C091958195910986179707C8F420
:100AB000828193812A883B888219930997FF03C01A
:100AC0009195819591098617970758F46894C0F815
:100AD0004E5F5F4F3496B9CF8A859B85089708F0A3
:100AE00053C00F5F1F4F99E0690E711C083011054C
:100AF00009F04ECF1092E5041092E4041092E30442
:100B00001092E2048091E2049091E3048334910511
:100B100040F01092E3041092E2041092E504109267
:100B2000E4048091E2049091E3049C012F5F3F4F25
:100B30003093E3042093E204880F991FFC01EA51EB
:100B4000FB4F5182408280926C0590926D05A0927D
:100B50006E05B0926F0565960FB6F894DEBF0FBEB6
:100B6000CDBFDF91CF911F910F91FF90EF90DF905C
:100B7000CF90BF90AF909F908F907F906F905F903D
:100B80004F903F902F900895C092AF06D092B0063C
:100B9000E092B106F092B2062C883D8836942794F4
:100BA0003092110620921006309376052093750539
:100BB00010937805009377059DCF0F931F93CF93E4
:100BC000DF938C01D0E0C0E0CE010E94AA0CF801B6
:100BD00081938F012196CC31D105B1F7DF91CF916F
:100BE0001F910F910895FB0101900020E9F73197C3
:100BF000AF01461B570BDC01ED91FC910280F381A4
:100C0000E02D0994CF93DF93BC0182EC96E00E9423
:100C1000F305EC016BE072E082EC96E00E94F305D4
:100C20008C0F9D1FDF91CF9108958F929F92AF926D
:100C3000BF92CF92DF92EF92FF920F931F93CF93C9
:100C4000DF93CDB7DEB7A1970FB6F894DEBF0FBE26
:100C5000CDBF6B017C01F7FE4BC06DE282EC96E0EC
:100C60000E9437038C0122273327A9012C193D0943
:100C70004E095F0919A2CE0181967C019AE0892E66
:100C8000912CA12CB12CCA01B901A50194010E949B
:100C9000D40C605DF70162937F0121153105410598
:100CA000510589F790E080E0309729F0BF0182EC90
:100CB00096E00E94F305080F191F6BE072E082ECCA
:100CC00096E00E94F305800F911FA1960FB6F8944D
:100CD000DEBF0FBECDBFDF91CF911F910F91FF906F
:100CE000EF90DF90CF90BF90AF909F908F9008953E
:100CF000AC019B0119A28E010F5D1F4F8AE0C82E27
:100D0000D12CE12CF12CCA01B901A70196010E9456
:100D1000D40C605DF80162938F0121153105410506
:100D2000510589F7309739F0BF0182EC96E00E94B7
:100D3000F3058C01C2CF10E000E0BFCF0C94F305A7
:100D40000F931F93CF93DF93EC018B018EE092E022
:100D50000E94020666E272E082EC96E00E949E0625
:100D6000B80182EC96E00E949E0689E292E00E9421
:100D700002068EE092E00E94020661E372E082ECDD
:100D800096E00E949E06688179818A819B810E94FB
:100D900015066CE472E082EC96E00E949E066C817F
:100DA0007D818E819F810E94150667E672E082EC4C
:100DB00096E00E949E06688579858A859B850E94BB
:100DC000150662E872E082EC96E00E949E066C8551
:100DD0007D858E859F850E9415066DE972E082EC07
:100DE00096E00E949E06688979898A899B890E947B
:100DF000150668EB72E082EC96E00E949E066C8914
:100E00007D898E899F890E94150663ED72E082ECD0
:100E100096E00E949E06688D798D8A8D9B8D0E943A
:100E200015068EE092E0DF91CF911F910F910C9407
:100E300002061F920F920FB60F9211242F933F9329
:100E40004F935F936F937F938F939F93AF93BF93D2
:100E5000EF93FF9382E196E00E947301FF91EF917F
:100E6000BF91AF919F918F917F916F915F914F91C2
:100E70003F912F910F900FBE0F901F9018951F92CA
:100E80000F920FB60F9211242F938F939F93EF938E
:100E9000FF93E0912206F09123068081E0912806DD
:100EA000F091290682FD1BC0908180912B068F5FF7
:100EB0008F7320912C06821741F0E0912B06F0E011
:100EC000EE5EF94F958F80932B06FF91EF919F91E6
:100ED0008F912F910F900FBE0F901F9018958081CA
:100EE000F4CF1F920F920FB60F9211242F933F93BE
:100EF0008F939F93AF93BF938091790590917A05DB
:100F0000A0917B05B0917C053091740523E0230FFF
:100F10002D3758F50196A11DB11D209374058093BE
:100F2000790590937A05A0937B05B0937C05809119
:100F3000700590917105A0917205B09173050196AD
:100F4000A11DB11D8093700590937105A09372054A
:100F5000B0937305BF91AF919F918F913F912F9166
:100F60000F900FBE0F901F90189526E8230F029642
:100F7000A11DB11DD2CF1F920F920FB60F92112457
:100F80002F933F934F935F936F937F938F939F9391
:100F9000AF93BF93EF93FF93E0910201F0910301B0
:100FA0000995FF91EF91BF91AF919F918F917F91A3
:100FB0006F915F914F913F912F910F900FBE0F90C6
:100FC0001F9018951F920F920FB60F9211242F9316
:100FD0003F934F935F936F937F938F939F93AF93C1
:100FE000BF93EF93FF93E0910001F0910101099508
:100FF000FF91EF91BF91AF919F918F917F916F91F1
:101000005F914F913F912F910F900FBE0F901F90C6
:101010001895CF92DF92EF92FF920F931F93CF9389
:10102000DF93E2E1F6E01382128288EEC82E83E0BD
:10103000D82EE12CF12CC482D582E682F7828BEE89
:1010400091E09183808385EC90E09587848784ECA0
:1010500090E09787868780EC90E0918B808B81EC85
:1010600090E0938B828B82EC90E0958B848B86EC66
:1010700090E0978B868B118E128E138E148EC3EB9D
:10108000D6E00FEF1FEF1B830A838AE090E09D8379
:101090008C8349E050E066E870E089EB96E00E94BE
:1010A000A10C198308838CE390E090930501809351
:1010B00004011092AF061092B0061092B106109281
:1010C000B206C2ECD6E01B821A82CC82DD82EE82AE
:1010D000FF828DEF91E0998388831B8A1A8AE6ED5F
:1010E000F6E060816D7F60836695617081E06827BE
:1010F00089E00E94020289E00E94A700ECEEF0E085
:10110000E491EC87E8EDF0E0E491F0E0EE0FFF1FF2
:10111000EB53FF4F859194919E878D87DF91CF91FF
:101120001F910F91FF90EF90DF90CF900895CF9394
:10113000DF93CDB7DEB7CB54D1090FB6F894DEBF3D
:101140000FBECDBF789484B5826084BD84B58160C4
:1011500084BD85B5826085BD85B5816085BD809182
:101160006E00816080936E001092810080918100FA
:1011700082608093810080918100816080938100F2
:10118000809180008160809380008091B1008460B4
:101190008093B1008091B00081608093B000809115
:1011A0007A00846080937A0080917A0082608093D4
:1011B0007A0080917A00816080937A0080917A0031
:1011C000806880937A001092C100E0912206F0912D
:1011D000230682E08083E0911E06F0911F061082B4
:1011E000E0912006F091210680E1808310922A068A
:1011F000E0912606F091270686E08083E0912406A0
:10120000F0912506808180618083E0912406F09131
:101210002506808188608083E0912406F091250670
:10122000808180688083E0912406F091250680818A
:101230008F7D80838FE190E09093D5068093D406D4
:101240008EEE92E00E94020689E995E00E94DD059B
:101250000E941E0482E00E94A7008E010F5F1F4FB4
:10126000AA24AA94BA2C2EE3C22E21E0D22E33E473
:10127000632E34E0732E6EE38CE30E94DF03F09064
:101280000F06FF2009F46EC06BE273E082EC96E07B
:101290000E949E0685EB95E00E9402066DED71E0CE
:1012A00085EB95E00E94160D892B89F460ED71E0C5
:1012B00082E196E00E949E066DE373E082EC96E088
:1012C0000E949E0680ED91E00E94020647C068ECF5
:1012D00071E085EB95E00E94160D892B09F04FC057
:1012E0006DEB71E082E196E00E949E066DE373E093
:1012F00082EC96E00E949E068DEB91E00E94020631
:101300000E9496038091B5069091B606019671F001
:101310004091B1055091B2056091990570919A057F
:1013200080919B0590919C050E94A102B092B60607
:10133000A092B50660E085E00E9402026FE473E0CF
:1013400082EC96E00E949E066091990570919A0544
:1013500080919B0590919C050E9415061092B50501
:1013600010920F06E0E0F0E0EF2B09F484CF0E942A
:101370005F01882309F474CF0E94000071CF64EBF1
:1013800071E085EB95E00E94160D892BE9F568EA7E
:1013900071E082E196E00E949E066DE373E082ECCC
:1013A00096E00E949E0688EA91E00E9402060E9452
:1013B00096038091B5069091B606019671F0409122
:1013C000B1055091B20560919D0570919E05809187
:1013D0009F059091A0050E94A102B092B606A0922E
:1013E000B50660E085E00E9402026AE673E082ECE6
:1013F00096E00E949E0660919D0570919E058091E9
:101400009F059091A005A8CF6EE971E085EB95E06E
:101410000E94160D892B79F461E971E082E196E072
:101420000E949E066DE373E082EC96E00E949E06A9
:1014300081E991E049CF63E871E085EB95E00E9496
:10144000160D892B09F0ABC010920F066DE58BE5E8
:101450000E94DF0380910F068823E9F044E050E00A
:1014600066E873E085EB95E00E941F0D892B09F07B
:1014700044C069E975E089EB95E00E94A2031092EF
:10148000B50542E050E06FEC74E085EB95E00E941A
:101490001F0D892BC9F689E9882E85E0982EF12C3D
:1014A000E12CF40151904F01C7010E94AA0C58167B
:1014B00021F0652DC7010E94B20CFFEFEF1AFF0A61
:1014C0002CE1E216F10469F762E771E082E196E04F
:1014D0000E949E0664EB73E089E995E00E94A006F5
:1014E0006DE373E082EC96E00E949E0682E791E055
:1014F0000E9402060E941E0431CF45E050E06BE8D6
:1015000073E085EB95E00E941F0D6DE975E0892B76
:1015100061F045E050E061E973E085EB95E00E9401
:101520001F0D892B29F461EA75E08AEB95E0A5CFC0
:1015300046E050E067E973E085EB95E00E941F0DFF
:1015400065EA75E0892B41F147E050E06EE973E010
:1015500085EB95E00E941F0D892B29F469EA75E05F
:101560008CEB95E08ACF46E050E066EA73E085EBCD
:1015700095E00E941F0D6DEA75E0892B69F046E049
:1015800050E06DEA73E085EB95E00E941F0D892B1A
:1015900009F075CF61EB75E08BEB95E06ECF66E6F9
:1015A00071E085EB95E00E94160D892BA9F467E5A3
:1015B00071E082E196E00E949E0662EC73E089E9A8
:1015C00095E00E94A0066DE373E082EC96E00E9435
:1015D0009E0687E591E078CE6CE471E085EB95E0BE
:1015E0000E94160D892B09F002C18FB7F894209044
:1015F000790530907A0540907B0550907C058FBF2F
:1016000081ED93E00E94020661E082E00E94020206
:1016100081E090E09093B4068093B3060E94C600E8
:101620008DEE93E00E94020698EB290E9BE0391E96
:10163000411C511C2FB7F8948091790590917A053F
:10164000A0917B05B0917C052FBF82159305A40561
:10165000B50508F0B9C08091AF069091B006A09191
:10166000B106B091B206892B8A2B8B2B19F389E036
:1016700094E00E9402068091AF069091B006A0917E
:10168000B106B091B20680937D0590937E05A0933C
:101690007F05B09380058093810590938205A09388
:1016A0008305B09384058091770590917805B0E02B
:1016B000A0E08093850590938605A0938705B0935D
:1016C00088058091750590917605B0E0A0E0809343
:1016D000890590938A05A0938B05B0938C05809122
:1016E000100690911106B0E0A0E0809395059093CC
:1016F0009605A0939705B09398051092AF061092A7
:10170000B0061092B1061092B20686E294E00E94F2
:1017100002068091B306823010F40E948E02B092CD
:10172000B406A092B30660E082E00E940202FF20AD
:1017300009F44CC0809198058F93809197058F9301
:10174000809196058F93809195058F9380918C055C
:101750008F9380918B058F9380918A058F938091D1
:1017600089058F93809188058F93809187058F934A
:10177000809186058F93809185058F938091800558
:101780008F9380917F058F9380917E058F938091B9
:101790007D058F93DF92CF927F926F921F930F936D
:1017A0000E942D0D0FB6F894DEBF0FBECDBFB8015D
:1017B00082E196E00E949E066DE373E082EC96E083
:1017C0000E949E06C80180CDF12C9FCFDF92CF9260
:1017D0008FE694E09F938F931F930F930E942D0D9C
:1017E0000F900F900F900F900F900F90E0CF61E34C
:1017F00071E085EB95E00E94160D892B21F584E7B9
:1018000094E09F938F9381E291E09F938F938BE776
:1018100094E09F938F931F930F930E942D0DB80117
:1018200082E196E00E949E066DE373E082EC96E012
:101830000E949E06C8010E9402060FB6F894DEBF01
:101840000FBECDBF8BCD65E171E085EB95E00E94C9
:10185000160D892B09F082CD8DE795E00E94DD05FC
:10186000809198058F93809197058F93809196052D
:101870008F93809195058F93809194058F9380919C
:1018800093058F93809192058F93809191058F930B
:10189000809190058F9380918F058F9380918E0515
:1018A0008F9380918D058F9380918C058F9380917C
:1018B0008B058F9380918A058F93809189058F93F3
:1018C000809188058F93809187058F9380918605FD
:1018D0008F93809185058F93809184058F9380915C
:1018E00083058F93809182058F93809181058F93DB
:1018F000809180058F9380917F058F9380917E05E5
:101900008F9380917D058F93E6E0F1E0FF93EF9355
:101910008AE894E09F938F931F930F930E942D0D5D
:101920000FB6F894DEBF0FBECDBFB80182E196E0DE
:101930000E949E0662ED74E08DE795E00E94A0068D
:101940003BCFFB01DC0102C005900D92415050409D
:10195000D8F70895F999FECF92BD81BDF89A9927DD
:1019600080B50895262FF999FECF1FBA92BD81BD8B
:1019700020BD0FB6F894FA9AF99A0FBE0196089511
:10198000AA1BBB1B51E107C0AA1FBB1FA617B707A5
:1019900010F0A61BB70B881F991F5A95A9F78095C1
:1019A0009095BC01CD010895A1E21A2EAA1BBB1B84
:1019B000FD010DC0AA1FBB1FEE1FFF1FA217B3071B
:1019C000E407F50720F0A21BB30BE40BF50B661F31
:1019D000771F881F991F1A9469F7609570958095F5
:1019E00090959B01AC01BD01CF0108950E94070DA8
:1019F000A59F900DB49F900DA49F800D911D112463
:101A00000895EE0FFF1F0590F491E02D0994A29F19
:101A1000B001B39FC001A39F700D811D1124911DC2
:101A2000B29F700D811D1124911D0895FB01DC01F1
:101A30008D91019080190110D9F3990B0895FB0144
:101A4000DC014150504030F08D910190801919F423
:101A50000020B9F7881B990B0895AEE0B0E0E3E3EE
:101A6000FDE00C94DC0F0D891E8986E08C831A83BF
:101A700009838FEF9FE79E838D83AE01475E5F4FA3
:101A80006F89788DCE0101960E94500D2F81388587
:101A9000020F131FF80110822E96E4E00C94F80F49
:101AA000ABE0B0E0E6E5FDE00C94CE0F7C013B013D
:101AB0008A01FC0117821682838181FFC8C1CE0191
:101AC00001965C01F7019381F30193FD859193FFEA
:101AD00081913F01882309F453C1853239F493FD84
:101AE000859193FF81913F01853229F4B70190E000
:101AF0000E94400FE7CF912C212C312CFFE1F315F0
:101B000038F08B3211F190F4803209F1833229F1EF
:101B100037FC3CC020ED280F2A3050F536FE20C09F
:101B20008AE0989E200D1124922E06C08D3291F0ED
:101B3000803371F7689430F8F30193FD859193FF3A
:101B400081913F018111DACF21C0689431F8689406
:101B500032F8F2CF689433F8EFCF689434F8ECCFD2
:101B6000EAE02E9E200D1124222E689435F8E4CF51
:101B70008E3229F436FC04C1689436F8DDCF8C36F9
:101B800019F4689437F8D8CF8836B1F2982F9F7D32
:101B900095549330E0F08336A1F18337C1F183355A
:101BA00009F063C02801F2E04F0E511CF801C0801B
:101BB000D180692D70E036FC02C06FEF7FEFC60167
:101BC0000E942A0F4C01689437F882010AC00C5F0A
:101BD0001F4FFFE3F98388248394912C6501E894D7
:101BE00037F833FE2DC0522C8114910471F5552025
:101BF00009F468CFB70180E290E00E94400F5A9448
:101C0000F6CFF801808189830E5F1F4FE4CF280152
:101C1000F2E04F0E511CF801C080D180692D70E0B8
:101C200036FC02C06FEF7FEFC6010E94350F4C01FA
:101C30008201D5CFB70180E290E00E94400F2A9444
:101C40002814190409F0B0F7CECFF60137FC8591BE
:101C500037FE81916F01B70190E00E94400F511053
:101C60005A94F1E08F1A9108BFCF843619F0893663
:101C700009F077C0F80137FE6BC060817181828105
:101C800093810C5F1F4FF32DFF763F2E97FF09C006
:101C900090958095709561957F4F8F4F9F4F689479
:101CA00037F82AE030E0A5010E94700FC82ECA184C
:101CB0008C2C432C36FE0CC0E89440F8C91440F438
:101CC00034FE05C032FC03C0F32DFE7E4F2E892C5E
:101CD00044FE95C0FE01EC0DF11D8081803309F0BA
:101CE00087C0242D297E422E842D8870582E43FCD7
:101CF00095C040FE8FC09C2C821418F42C0C922CA2
:101D0000981844FE91C0B70180E390E00E94400F14
:101D100042FE09C088E790E041FE02C088E590E0FD
:101D2000B7010E94400FC91408F48AC0CA94D12C8C
:101D30009FEFC91AD90ACA0CDB1CF60182916F0108
:101D4000B70190E00E94400FAC14BD04B1F74FCF33
:101D500060817181072E000C880B990B0E5F1F4F5D
:101D600092CFD32CE894D4F82AE030E0853739F1CB
:101D7000232D297FD22E8F3601F148F48835A9F022
:101D8000F701868197812B96E2E10C94EA0F803768
:101D900049F08837A9F7D4FE02C06894D2F820E150
:101DA00030E00DC06894D4F8F6CF34FE03C0822F23
:101DB0008660D82E20E132E002C028E030E0F80151
:101DC000D7FE0FC060817181828193810C5F1F4FAC
:101DD000A5010E94700FC82ECA183D2CE89437F850
:101DE00067CF6081718190E080E00E5F1F4FF0CF80
:101DF00042FC02C0839478CF8394839475CF842D62
:101E0000867809F471CFF6CFB70180E290E00E94A6
:101E1000400F83948214C0F3512C73CF522C581866
:101E2000821408F46ECFF8CF842D867809F47BCF26
:101E30008BE241FE80E247FC8DE2B70190E071CF7A
:101E4000B70180E390E00E94400F9A946CCF8FEF2F
:101E50009FEF99CFFC010590615070400110D8F7B9
:101E6000809590958E0F9F1F0895FC0161507040E2
:101E700001900110D8F7809590958E0F9F1F0895BF
:101E80000F931F93CF93DF93182F092FEB018B81B3
:101E900081FD09C01FEF0FEF812F902FDF91CF91B0
:101EA0001F910F91089582FF14C02E813F818C8174
:101EB0009D81281739073CF4E881F981CF0101960B
:101EC0009983888310838E819F8101969F838E835F
:101ED000E3CFE885F985812F0995892BA1F3DACF26
:101EE000FA01AA27283051F1203181F1E8946F934B
:101EF0006E7F6E5F7F4F8F4F9F4FAF4FB1E03ED0F1
:101F0000B4E03CD0670F781F891F9A1FA11D680F8E
:101F1000791F8A1F911DA11D6A0F711D811D911DC1
:101F2000A11D20D009F468943F912AE0269F112436
:101F30003019305D3193DEF6CF010895462F47709A
:101F4000405D4193B3E00FD0C9F7F6CF462F4F70F5
:101F5000405D4A3318F0495D31FD4052419302D053
:101F6000A9F7EACFB4E0A6959795879577956795F9
:101F7000BA95C9F700976105710508959B01AC01F9
:101F80000A2E06945795479537952795BA95C9F720
:101F9000620F731F841F951FA01D08952F923F92FB
:101FA0004F925F926F927F928F929F92AF92BF9269
:101FB000CF92DF92EF92FF920F931F93CF93DF9315
:101FC000CDB7DEB7CA1BDB0B0FB6F894DEBF0FBE72
:101FD000CDBF09942A88398848885F846E847D84BF
:101FE0008C849B84AA84B984C884DF80EE80FD80C1
:101FF0000C811B81AA81B981CE0FD11D0FB6F89437
:0E200000DEBF0FBECDBFED010895F894FFCFF7
:10200E002F032F033C003C434F5F454550524F4D2D
:10201E005F4F4B3E003C434F5F454550524F4D3E48
:10202E00003C434F5F56455253494F4E5F4F4B3E18
:10203E00003C434F5F56455253494F4E3E003C4382
:10204E004F5F4C4541524E5F4F4B3E003C434F5FFE
:10205E004C4541524E3E003C434F5F4F55544C450C
:10206E00545F4F4B3E003C434F5F4F55544C4554CD
:10207E003E003C434F5F53455454494E47535F4FC8
:10208E004B3E003C434F5F53455454494E47533EDD
:10209E00003C434F5F424541545F4F4B3E003C4333
:1020AE004F5F424541543E003C434F5F4F46465FB3
:1020BE004F4B3E003C434F5F4F46463E003C434F26
:1020CE005F4F4E5F4F4B3E003C434F5F4F4E3E00C7
:1020DE003C434F5F57414B455F4F4B3E003C434F98
:1020EE005F57414B453E00000000009501F5002270
:1020FE0001E201530131014501000000003703F5F3
:10210E0000930336033303300330030D0A002020FF
:10211E003D3D3D3D3D3D3D3D3D3D3D3D3D3D3D3DE1
:10212E003D3D3D3D3D002020002056616C756573A0
:10213E0000202020202020202020202020202020B1
:10214E00204F4E20636F6465203D2000202020200C
:10215E0020202020202020202020204F46462063B3
:10216E006F6465203D20002020202020202020208C
:10217E0020202020202050726F746F636F6C203DE2
:10218E002000202020202020202020202050756C90
:10219E007365204C656E677468203D2000202020FA
:1021AE002020202020202050756C736520526570F1
:1021BE0065617473203D2000202020205475726EBE
:1021CE00204F6E204265666F7265205175697420CE
:1021DE003D2000202020202020202020202056617D
:1021EE006C7565204C656E677468203D20002A2A48
:1021FE002A2A2A2A2A2A2A2A2A2A2A2A2A2A2A2A31
:10220E002A2A2A2A2A2A2A2A2A2A2A2A2A2A2A2A20
:10221E002A2A2A2A2A2A2A2A2A2A2A2A2A2A2A2A10
:10222E002A2A2A2A2A2A2A2A2A2A00526563656914
:10223E00766564207369676E616C3A2000202053C6
:10224E00656E64696E67207265706C793A20002045
:10225E002053656E74204F4E20636F646520746F3B
:10226E00206F75746C65743A2000202053656E746F
:10227E00204F464620636F646520746F206F75741F
:10228E006C65743A20005B4F6E3A005B4F66663A9F
:10229E00005B50726F3A005B504C656E3A005B50BB
:1022AE00526570733A005B544F42513A005B564C84
:1022BE00656E3A00506F73742D53455454494E4712
:1022CE00530043757272656E74204F75746C65742D
:1022DE00002020202043616C6C6564205243535FC4
:1022EE00436865636B466F72436F64650020202000
:1022FE002043616C6C656420524352656365697658
:10230E006572456E61626C65002020202044657404
:10231E006563746564206120627574746F6E2070DD
:10232E007265737321002020202043616C6C6564FC
:10233E0020524352656365697665724469736162C2
:10234E006C650025735B436F64653A256C645D5B59
:10235E0050726F3A256C645D5B504C656E3A256C1D
:10236E00645D5B564C656E3A256C645D5B5D002565
:10237E00735B5D00302E382E30370025735B42754F
:10238E00696C643A25735D5B5D0025735B4F6E3A35
:10239E00256C645D5B4F66663A256C645D5B5072BE
:1023AE006F3A256C645D5B504C656E3A256C645DCE
:1023BE005B50526570733A256C645D5B544F4251AD
:1023CE003A256C645D5B564C656E3A256C645D5BBC
:1023DE005D0043757272656E7420454550524F4DC7
:0223EE000000ED
:00000001FF
